:100000000C94AE000C94CB000C94CB000C94CB0061
:100010000C94CB000C94CB000C94CB000C94CB0034
:100020000C94CB000C94CB000C94CB000C94CB0024
:100030000C94CB000C94CB000C94CB000C94CB0014
:100040000C94CB000C9444040C94C8030C94CB0087
:100050000C94CB000C94CB000C94CB000C94CB00F4
:100060000C94CB000C94CB008201AA018401860180
:1000700088018A018C018E01900192019401960100
:1000800098019C019E01A201CC01CC01CC01CC01C4
:10009000CC01CC01CC01CC01CC01CC01CC01CC01F8
:1000A000CC01CC01CC01CC01CC01CC01C401CC01F0
:1000B000CC01CC01CC01C601CC01CC01CC01CC01DE
:1000C000CC01C201CC01CC018201AA0184018601CC
:1000D00088018A018C018E0190019201CC01CC0132
:1000E000CC01CC01CC01CC01CC019401960198014A
:1000F0009C019E01A201A401A601AA01AC01CC01B0
:10010000AE01CC01B0018201B401B601B8018A018F
:10011000BA01BC01CC01CC01CC01C001CC01CC01A5
:10012000CC01CC01CC01C801CC01940196019A010B
:100130009C01A001A2019201A801AA01AC01CC017D
:10014000AA01CC01B001B201B401B601B8018A0123
:10015000BA01BE01CC01CC01CA01C00111241FBEED
:10016000CFEFD8E0DEBFCDBF11E0A0E0B1E0E8E91D
:10017000F9E002C005900D92A230B107D9F711E065
:10018000A2E0B1E001C01D92A131B107E1F70E94E8
:10019000E3010C94CA040C940000AC01009721F117
:1001A00021E006C025BB16BCA89BFECF8050914025
:1001B00031E081309307B0F741505040252F33276D
:1001C0004F5F5F4F80E09FEFBC01269FC001279FDC
:1001D000900D369F900D112421E025BB840F951FB3
:1001E000819586BDA89BFECF0895CF93DF93EC0148
:1001F00011C08AEF90E00E94CD008AEF90E00E944B
:10020000CD008AEF90E00E94CD008AEF90E00E943E
:10021000CD002197209769F7DF91CF9108951F9323
:10022000789410E514B98FE387B98EEF8AB982E02C
:1002300085BD1092C50083E38093C40080E980935C
:10024000C10084E084B92A9A84E690E00E94F50017
:100250002A9814B980EC8CBD8EB51F910895282F73
:10026000F999FECF862F90E092BD81BD20BDFA9A0C
:10027000F99A0895F999FECF90E092BD81BDF89A60
:1002800080B50895982F15B880E288B98EEF8BB9A4
:10029000623061F0633018F4613071F405C063308E
:1002A00039F0643049F406C0409A18C0419A16C02B
:1002B000429A14C0439A12C0653039F480910A0101
:1002C00084FF6AC05B98449A67C0663039F48091B5
:1002D0000A0185FF61C02E9A5C985EC097FF04C03A
:1002E0009095990F9BB958C0E92FF0E0EA37F105D6
:1002F00008F052C0EC5CFF4FEE0FFF1F0590F49129
:10030000E02D099480E847C088E445C080E643C0FA
:1003100082E341C084E23FC084E03DC080EF3BC047
:100320001BB83AC080E237C080E135C086E033C0F8
:100330008CE831C08EE42FC082E42DC08CE02BC04D
:1003400088E029C08CE127C084E825C082E123C071
:1003500086E121C082EF1FC082EC1DC08EE81BC069
:1003600086E519C086E417C088E115C080E313C094
:100370008EE511C08EE00FC082E80DC086EC0BC088
:1003800082E209C08EE707C08AEB05C08AEF03C08E
:100390008EEE01C08EEF8BB980910A0180FF03C001
:1003A000613009F4459881FF03C0623009F4459833
:1003B00082FF03C0633009F4459883FF03C06430B3
:1003C00009F4459808950F931F93CF93DF930E94EC
:1003D0000F0180E584B9F999FECF12BC11BCF89ADF
:1003E00080B590E090930901809308018F3F9105BB
:1003F00021F41092090110920801F999FECF82E0D0
:1004000090E092BD81BDF89A80B58330D1F0843000
:1004100028F4813071F0823080F407C08530C9F053
:10042000853098F08630F1F418C01092C5008FEC3A
:1004300017C01092C50087E613C01092C50083E371
:100440000FC01092C50082E20BC01092C50089E176
:1004500007C01092C5008CE003C01092C50088E070
:100460008093C40000E21EEFC2E3D0E0809102015D
:1004700061E00E94420185E090E00E94CD00809101
:10048000030162E00E94420185E090E00E94CD00FD
:100490008091040163E00E94420185E090E00E94A7
:1004A000CD008091050164E00E94420185E090E06A
:1004B0000E94CD0080E065E00E94420185E090E06E
:1004C0000E94CD0080E066E00E94420185E090E05D
:1004D0000E94CD0015B808B91BB980910801909110
:1004E00009019C012C9FC0012D9F900D3C9F900DF8
:1004F00011240E94CD00BACF15B880E288B98EEFE2
:100500008BB908958091060190910701029741F4FB
:100510008091040180930F01809105018093100167
:1005200080910201863761F080910301863741F0A6
:1005300080910401863721F080910501863769F4A6
:10054000109207011092060188E7809302018093C0
:1005500003018093040180930501809102018A3791
:1005600029F580910601909107010297F9F4809195
:10057000030160E00E942F01809103018093080134
:1005800010920901109207011092060180910D014D
:100590008093020180910E018093030180910F01ED
:1005A00080930401809110018093050180910201E4
:1005B0008737F1F480910601909107010297C1F409
:1005C0008091030180930A011092070110920601A5
:1005D00080910D018093020180910E0180930301AF
:1005E00080910F0180930401809110018093050197
:1005F000809102018F3709F04EC0809106019091E1
:100600000701029709F047C0909103019330D1F0A0
:10061000943028F4913071F0923080F407C0953016
:10062000C9F0953098F09630F1F418C01092C500DA
:100630008FEC17C01092C50087E613C01092C5005A
:1006400083E30FC01092C50082E20BC01092C50078
:1006500089E107C01092C5008CE003C01092C5006C
:1006600088E08093C400892F62E00E942F011092DD
:1006700007011092060180910D0180930201809183
:100680000E018093030180910F01809304018091FA
:10069000100180930501809102018B37D9F480917C
:1006A0000601909107010297A9F4809103018068E7
:1006B0008093020180910E018093030180910F01CC
:1006C000809304018091100180930501109207012D
:1006D00010920601809102018C37D9F480910601B5
:1006E000909107010297A9F480910301806880939B
:1006F000030180910D018093020180910F0180938D
:10070000040180911001809305011092070110925D
:100710000601809102018D37D9F4809106019091F4
:1007200007010297A9F48091030180688093040176
:1007300080910E018093030180910D01809302014D
:10074000809110018093050110920701109206011B
:10075000809102018E37D9F48091060190910701B2
:100760000297A9F48091030180688093050180912C
:100770000E018093030180910F0180930401809109
:100780000D01809302011092070110920601089555
:100790001F920F920FB60F9211242F933F934F93F6
:1007A0005F936F937F938F939F93AF93BF93EF93D9
:1007B000FF9381E090E090930C0180930B01809176
:1007C000000190910101892B41F0109201011092DA
:1007D000000110920701109206018091060190918C
:1007E000070181309105B9F0823091051CF4892B05
:1007F00039F037C082309105E9F0039791F525C0B3
:100800008091020180930D018091C60080930201C6
:1008100081E090E00AC08091030180930E018091F5
:10082000C6008093030182E090E0909307018093DB
:10083000060117C08091040180930F018091C600CA
:100840008093040183E090E0F0CF809105018093D4
:1008500010018091C600809305011092070110924B
:1008600006010E948202FF91EF91BF91AF919F918B
:100870008F917F916F915F914F913F912F910F9049
:100880000FBE0F901F9018951F920F920FB60F92E8
:1008900011242F933F934F935F936F937F938F9385
:1008A0009F93AF93BF93EF93FF9381E090E090937A
:1008B00001018093000180910B0190910C01892B23
:1008C00041F010920C0110920B011092070110924E
:1008D0000601809106019091070181309105B1F0E8
:1008E000823091051CF4892B39F033C08230910598
:1008F000D9F0039771F522C08091020180930D0118
:100900008EB58093020181E090E009C080910301DF
:1009100080930E018EB58093030182E090E0909366
:1009200007018093060115C08091040180930F0197
:100930008EB58093040183E090E0F1CF80910501B2
:10094000809310018EB580930501109207011092DB
:1009500006010E948202FF91EF91BF91AF919F919A
:100960008F917F916F915F914F913F912F910F9058
:100970000FBE0F901F90189510920701109206015C
:1009800088E78093020180930301809304018093A0
:0809900005010895F894FFCF62
:0209980001005C
:00000001FF
