:100000000C94AE000C94CB000C94CB000C94CB0061
:100010000C94CB000C94CB000C94CB000C94CB0034
:100020000C94CB000C94CB000C94CB000C94CB0024
:100030000C94CB000C94CB000C94CB000C94CB0014
:100040000C94CB000C9419040C94B5030C94CB00C5
:100050000C94CB000C94CB000C94CB000C94CB00F4
:100060000C94CB000C94CB000D0135010F01110154
:1000700013011501170119011B011D011F012101A8
:100080002301270129012D0157015701570157016C
:1000900057015701570157015701570157015701A0
:1000A0005701570157015701570157014F01570198
:1000B0005701570157015101570157015701570186
:1000C00057014D01570157010D0135010F01110174
:1000D00013011501170119011B011D0157015701DA
:1000E000570157015701570157011F0121012301F2
:1000F000270129012D012F01310135013701570158
:10010000390157013B010D013F0141014301150137
:10011000450147015701570157014B01570157014D
:10012000570157015701530157011F0121012501B3
:1001300027012B012D011D01330135013701570125
:10014000350157013B013D013F01410143011501CB
:10015000450149015701570155014B0111241FBEAB
:10016000CFEFD8E0DEBFCDBF11E0A0E0B1E0E6E028
:10017000F9E002C005900D92A230B107D9F711E065
:10018000A2E0B1E001C01D92AE30B107E1F70E94DC
:10019000E8010C9481040C940000982F15B880E2BB
:1001A00088B98EEF8BB9623061F0633018F461303A
:1001B00071F405C0633039F0643049F406C0409AE8
:1001C00018C0419A16C0429A14C0439A12C06530B2
:1001D00039F48091080184FF6AC05B98449A67C033
:1001E000663039F48091080185FF61C02E9A5C98D1
:1001F0005EC097FF04C09095990F9BB958C0E92F36
:10020000F0E0EA37F10508F052C0EC5CFF4FEE0F6A
:10021000FF1F0590F491E02D099480E847C088E421
:1002200045C080E643C082E341C084E23FC084E031
:100230003DC080EF3BC01BB83AC080E237C080E1D0
:1002400035C086E033C08CE831C08EE42FC082E434
:100250002DC08CE02BC088E029C08CE127C084E849
:1002600025C082E123C086E121C082EF1FC082EC5D
:100270001DC08EE81BC086E519C086E417C088E162
:1002800015C080E313C08EE511C08EE00FC082E878
:100290000DC086EC0BC082E209C08EE707C08AEB76
:1002A00005C08AEF03C08EEE01C08EEF8BB980913E
:1002B000080180FF03C0613009F44598809108016E
:1002C00081FF03C0623009F445988091080182FFE4
:1002D00003C0633009F445988091080183FF03C08F
:1002E000643009F44598089515B880E288B98EEF16
:1002F0008BB908951092060188E7809302018093DC
:10030000030180930401809305010895AC010097D7
:1003100021F121E006C025BB16BCA89BFECF805072
:10032000914031E081309307B0F741505040252F84
:1003300033274F5F5F4F80E09FEFBC01269FC001D6
:10034000279F900D369F900D112421E025BB840F2F
:10035000951F819586BDA89BFECF0895CF93DF930F
:10036000EC0111C08AEF90E00E9486018AEF90E0D4
:100370000E9486018AEF90E00E9486018AEF90E059
:100380000E9486012197209769F7DF91CF91089508
:100390001F93789410E514B98FE387B98EEF8AB96B
:1003A00082E085BD1092C50083E38093C40080E99C
:1003B0008093C10084E084B92A9A84E690E00E9488
:1003C000AE012A9814B980EC8CBD8EB51F910895AA
:1003D000FF920F931F930E94C80180E584B9F99999
:1003E000FECF12BC11BCF89A80B5809307018091B2
:1003F00007018F3F11F410920701F999FECF82E0B7
:1004000090E092BD81BDF89A80B58330D1F0843000
:1004100028F4813071F0823080F407C08530C9F053
:10042000853098F08630F1F418C01092C5008FEC3A
:1004300017C01092C50087E613C01092C50083E371
:100440000FC01092C50082E20BC01092C50089E176
:1004500007C01092C5008CE003C01092C50088E070
:100460008093C40090E2F92E0EEF12E38091020116
:1004700061E00E94CD0085E090E00E9486018091BD
:10048000030162E00E94CD0085E090E00E948601B9
:100490008091040163E00E94CD0085E090E00E941D
:1004A00086018091050164E00E94CD0085E090E026
:1004B0000E94860180E065E00E94CD0085E090E02A
:1004C0000E94860180E066E00E94CD0085E090E019
:1004D0000E94860115B8F8B80BB980910701819F79
:1004E000C00111240E948601C1CF282FF999FECFA7
:1004F000862F90E092BD81BD20BDFA9AF99A0895A9
:1005000080910601823041F48091040180930C01B6
:100510008091050180930D0180910201863761F081
:1005200080910301863741F080910401863721F0E4
:1005300080910501863759F41092060188E780936F
:10054000020180930301809304018093050180914F
:1005500002018A37F9F4809106018230D9F4809142
:10056000030160E00E9475028091030180930701FE
:100570001092060180910A018093020180910B0183
:100580008093030180910C018093040180910D01FF
:1005900080930501809102018737D1F48091060193
:1005A0008230B1F48091030180930801109206011A
:1005B00080910A018093020180910B0180930301D5
:1005C00080910C018093040180910D0180930501BD
:1005D000809102018F3709F04BC080910601823073
:1005E00009F046C0809103018330D1F0843028F4B3
:1005F000813071F0823080F407C08530C9F08530D9
:1006000098F08630F1F418C01092C5008FEC17C036
:100610001092C50087E613C01092C50083E30FC097
:100620001092C50082E20BC01092C50089E107C09C
:100630001092C5008CE003C01092C50088E0809342
:10064000C4008091030162E00E94750210920601CD
:1006500080910A018093020180910B018093030134
:1006600080910C018093040180910D01809305011C
:10067000809102018B37D9F4809106018230B9F460
:100680008091030180930201809102018068809330
:10069000020180910B018093030180910C018093F2
:1006A000040180910D018093050110920601809153
:1006B00002018C37D9F4809106018230B9F480911F
:1006C00003018093030180910301806880930301FB
:1006D00080910A018093020180910C0180930401B2
:1006E00080910D0180930501109206018091020115
:1006F0008D37D9F4809106018230B9F480910301DD
:1007000080930401809104018068809304018091AA
:100710000B018093030180910A0180930201809173
:100720000D018093050110920601809102018E3720
:10073000D9F4809106018230B9F48091030180934D
:1007400005018091050180688093050180910B016E
:100750008093030180910C018093040180910A0130
:10076000809302011092060108951F920F920FB616
:100770000F9211242F933F934F935F936F937F9327
:100780008F939F93AF93BF93EF93FF9381E08093F9
:10079000090180910001882321F01092000110923C
:1007A000060180910601813081F0813028F082308D
:1007B000D1F0833059F520C08091020180930A0165
:1007C0008091C6008093020108C08091030180934C
:1007D0000B018091C60080930301809106018F5F19
:1007E0008093060113C08091040180930C018091D5
:1007F000C60080930401F1CF8091050180930D0123
:100800008091C60080930501109206010E9480022B
:10081000FF91EF91BF91AF919F918F917F916F91D8
:100820005F914F913F912F910F900FBE0F901F90AE
:1008300018951F920F920FB60F9211242F933F938A
:100840004F935F936F937F938F939F93AF93BF93D8
:10085000EF93FF9381E08093000180910901882349
:1008600021F0109209011092060180910601813059
:1008700079F0813028F08230C1F0833039F51DC025
:100880008091020180930A018EB58093020107C016
:100890008091030180930B018EB5809303018091B9
:1008A00006018F5F8093060111C08091040180933F
:1008B0000C018EB580930401F2CF809105018093E5
:1008C0000D018EB580930501109206010E948002F1
:1008D000FF91EF91BF91AF919F918F917F916F9118
:1008E0005F914F913F912F910F900FBE0F901F90EE
:1008F0001895F999FECF90E092BD81BDF89A80B528
:060900000895F894FFCFFA
:020906000100EE
:00000001FF
